{
  "address": "0x5FbDB2315678afecb367f032d93F642f64180aa3",
  "abi": [
    {
      "inputs": [],
      "stateMutability": "nonpayable",
      "type": "constructor"
    },
    {
      "anonymous": false,
      "inputs": [
        {
          "indexed": true,
          "internalType": "string",
          "name": "trackingId",
          "type": "string"
        },
        {
          "indexed": true,
          "internalType": "uint256",
          "name": "eventId",
          "type": "uint256"
        },
        {
          "indexed": true,
          "internalType": "address",
          "name": "creator",
          "type": "address"
        },
        {
          "indexed": false,
          "internalType": "string",
          "name": "location",
          "type": "string"
        },
        {
          "indexed": false,
          "internalType": "enum SecureCargoFlow.ShipmentStatus",
          "name": "status",
          "type": "uint8"
        }
      ],
      "name": "CargoEventAdded",
      "type": "event"
    },
    {
      "anonymous": false,
      "inputs": [
        {
          "indexed": true,
          "internalType": "string",
          "name": "trackingId",
          "type": "string"
        },
        {
          "indexed": false,
          "internalType": "address",
          "name": "creator",
          "type": "address"
        },
        {
          "indexed": false,
          "internalType": "string",
          "name": "origin",
          "type": "string"
        },
        {
          "indexed": false,
          "internalType": "string",
          "name": "destination",
          "type": "string"
        },
        {
          "indexed": false,
          "internalType": "uint256",
          "name": "estimatedDelivery",
          "type": "uint256"
        }
      ],
      "name": "ShipmentCreated",
      "type": "event"
    },
    {
      "anonymous": false,
      "inputs": [
        {
          "indexed": true,
          "internalType": "string",
          "name": "trackingId",
          "type": "string"
        },
        {
          "indexed": true,
          "internalType": "uint256",
          "name": "eventId",
          "type": "uint256"
        },
        {
          "indexed": true,
          "internalType": "address",
          "name": "creator",
          "type": "address"
        },
        {
          "indexed": false,
          "internalType": "enum SecureCargoFlow.ShipmentStatus",
          "name": "oldStatus",
          "type": "uint8"
        },
        {
          "indexed": false,
          "internalType": "enum SecureCargoFlow.ShipmentStatus",
          "name": "newStatus",
          "type": "uint8"
        }
      ],
      "name": "StatusUpdated",
      "type": "event"
    },
    {
      "inputs": [
        {
          "internalType": "string",
          "name": "trackingId",
          "type": "string"
        },
        {
          "internalType": "string",
          "name": "location",
          "type": "string"
        },
        {
          "internalType": "enum SecureCargoFlow.ShipmentStatus",
          "name": "status",
          "type": "uint8"
        },
        {
          "internalType": "string",
          "name": "description",
          "type": "string"
        },
        {
          "internalType": "externalEuint32",
          "name": "encWeight",
          "type": "bytes32"
        },
        {
          "internalType": "bytes",
          "name": "weightInputProof",
          "type": "bytes"
        },
        {
          "internalType": "externalEuint8[]",
          "name": "encContentsBytes",
          "type": "bytes32[]"
        },
        {
          "internalType": "bytes",
          "name": "inputProof",
          "type": "bytes"
        }
      ],
      "name": "addCargoEvent",
      "outputs": [],
      "stateMutability": "nonpayable",
      "type": "function"
    },
    {
      "inputs": [
        {
          "internalType": "string",
          "name": "",
          "type": "string"
        },
        {
          "internalType": "uint256",
          "name": "",
          "type": "uint256"
        }
      ],
      "name": "cargoEvents",
      "outputs": [
        {
          "internalType": "uint256",
          "name": "eventId",
          "type": "uint256"
        },
        {
          "internalType": "string",
          "name": "trackingId",
          "type": "string"
        },
        {
          "internalType": "uint256",
          "name": "timestamp",
          "type": "uint256"
        },
        {
          "internalType": "string",
          "name": "location",
          "type": "string"
        },
        {
          "internalType": "enum SecureCargoFlow.ShipmentStatus",
          "name": "status",
          "type": "uint8"
        },
        {
          "internalType": "string",
          "name": "description",
          "type": "string"
        },
        {
          "internalType": "euint32",
          "name": "encryptedWeight",
          "type": "bytes32"
        }
      ],
      "stateMutability": "view",
      "type": "function"
    },
    {
      "inputs": [
        {
          "internalType": "string",
          "name": "trackingId",
          "type": "string"
        },
        {
          "internalType": "string",
          "name": "origin",
          "type": "string"
        },
        {
          "internalType": "string",
          "name": "destination",
          "type": "string"
        },
        {
          "internalType": "uint256",
          "name": "estimatedDeliveryTimestamp",
          "type": "uint256"
        }
      ],
      "name": "createShipment",
      "outputs": [],
      "stateMutability": "nonpayable",
      "type": "function"
    },
    {
      "inputs": [],
      "name": "emergencyPause",
      "outputs": [],
      "stateMutability": "nonpayable",
      "type": "function"
    },
    {
      "inputs": [
        {
          "internalType": "string",
          "name": "",
          "type": "string"
        }
      ],
      "name": "eventCounts",
      "outputs": [
        {
          "internalType": "uint256",
          "name": "",
          "type": "uint256"
        }
      ],
      "stateMutability": "view",
      "type": "function"
    },
    {
      "inputs": [
        {
          "internalType": "string",
          "name": "trackingId",
          "type": "string"
        },
        {
          "internalType": "uint256",
          "name": "eventIndex",
          "type": "uint256"
        }
      ],
      "name": "getCargoEvent",
      "outputs": [
        {
          "internalType": "uint256",
          "name": "eventId",
          "type": "uint256"
        },
        {
          "internalType": "uint256",
          "name": "timestamp",
          "type": "uint256"
        },
        {
          "internalType": "string",
          "name": "location",
          "type": "string"
        },
        {
          "internalType": "enum SecureCargoFlow.ShipmentStatus",
          "name": "status",
          "type": "uint8"
        },
        {
          "internalType": "string",
          "name": "description",
          "type": "string"
        }
      ],
      "stateMutability": "view",
      "type": "function"
    },
    {
      "inputs": [
        {
          "internalType": "string",
          "name": "trackingId",
          "type": "string"
        },
        {
          "internalType": "uint256",
          "name": "eventIndex",
          "type": "uint256"
        }
      ],
      "name": "getCargoEventPublic",
      "outputs": [
        {
          "internalType": "uint256",
          "name": "eventId",
          "type": "uint256"
        },
        {
          "internalType": "uint256",
          "name": "timestamp",
          "type": "uint256"
        },
        {
          "internalType": "string",
          "name": "location",
          "type": "string"
        },
        {
          "internalType": "enum SecureCargoFlow.ShipmentStatus",
          "name": "status",
          "type": "uint8"
        },
        {
          "internalType": "string",
          "name": "description",
          "type": "string"
        }
      ],
      "stateMutability": "view",
      "type": "function"
    },
    {
      "inputs": [
        {
          "internalType": "string",
          "name": "trackingId",
          "type": "string"
        },
        {
          "internalType": "uint256",
          "name": "eventIndex",
          "type": "uint256"
        }
      ],
      "name": "getContentsLength",
      "outputs": [
        {
          "internalType": "uint256",
          "name": "",
          "type": "uint256"
        }
      ],
      "stateMutability": "view",
      "type": "function"
    },
    {
      "inputs": [
        {
          "internalType": "string",
          "name": "trackingId",
          "type": "string"
        }
      ],
      "name": "getCurrentStatus",
      "outputs": [
        {
          "internalType": "enum SecureCargoFlow.ShipmentStatus",
          "name": "",
          "type": "uint8"
        }
      ],
      "stateMutability": "view",
      "type": "function"
    },
    {
      "inputs": [
        {
          "internalType": "string",
          "name": "trackingId",
          "type": "string"
        },
        {
          "internalType": "uint256",
          "name": "eventIndex",
          "type": "uint256"
        },
        {
          "internalType": "uint256",
          "name": "byteIndex",
          "type": "uint256"
        }
      ],
      "name": "getEncryptedContentsByte",
      "outputs": [
        {
          "internalType": "euint8",
          "name": "",
          "type": "bytes32"
        }
      ],
      "stateMutability": "view",
      "type": "function"
    },
    {
      "inputs": [
        {
          "internalType": "string",
          "name": "trackingId",
          "type": "string"
        },
        {
          "internalType": "uint256",
          "name": "eventIndex",
          "type": "uint256"
        }
      ],
      "name": "getEncryptedWeight",
      "outputs": [
        {
          "internalType": "euint32",
          "name": "",
          "type": "bytes32"
        }
      ],
      "stateMutability": "view",
      "type": "function"
    },
    {
      "inputs": [
        {
          "internalType": "string",
          "name": "trackingId",
          "type": "string"
        }
      ],
      "name": "getEventCount",
      "outputs": [
        {
          "internalType": "uint256",
          "name": "",
          "type": "uint256"
        }
      ],
      "stateMutability": "view",
      "type": "function"
    },
    {
      "inputs": [
        {
          "internalType": "string",
          "name": "trackingId",
          "type": "string"
        }
      ],
      "name": "getShipment",
      "outputs": [
        {
          "components": [
            {
              "internalType": "string",
              "name": "trackingId",
              "type": "string"
            },
            {
              "internalType": "string",
              "name": "origin",
              "type": "string"
            },
            {
              "internalType": "string",
              "name": "destination",
              "type": "string"
            },
            {
              "internalType": "uint256",
              "name": "createdAt",
              "type": "uint256"
            },
            {
              "internalType": "uint256",
              "name": "estimatedDelivery",
              "type": "uint256"
            },
            {
              "internalType": "address",
              "name": "creator",
              "type": "address"
            },
            {
              "internalType": "bool",
              "name": "exists",
              "type": "bool"
            }
          ],
          "internalType": "struct SecureCargoFlow.Shipment",
          "name": "",
          "type": "tuple"
        }
      ],
      "stateMutability": "view",
      "type": "function"
    },
    {
      "inputs": [
        {
          "internalType": "string",
          "name": "trackingId",
          "type": "string"
        }
      ],
      "name": "getShipmentDetails",
      "outputs": [
        {
          "components": [
            {
              "internalType": "string",
              "name": "trackingId",
              "type": "string"
            },
            {
              "internalType": "string",
              "name": "origin",
              "type": "string"
            },
            {
              "internalType": "string",
              "name": "destination",
              "type": "string"
            },
            {
              "internalType": "uint256",
              "name": "createdAt",
              "type": "uint256"
            },
            {
              "internalType": "uint256",
              "name": "estimatedDelivery",
              "type": "uint256"
            },
            {
              "internalType": "address",
              "name": "creator",
              "type": "address"
            },
            {
              "internalType": "bool",
              "name": "exists",
              "type": "bool"
            }
          ],
          "internalType": "struct SecureCargoFlow.Shipment",
          "name": "shipment",
          "type": "tuple"
        },
        {
          "components": [
            {
              "internalType": "uint256",
              "name": "eventId",
              "type": "uint256"
            },
            {
              "internalType": "string",
              "name": "trackingId",
              "type": "string"
            },
            {
              "internalType": "uint256",
              "name": "timestamp",
              "type": "uint256"
            },
            {
              "internalType": "string",
              "name": "location",
              "type": "string"
            },
            {
              "internalType": "enum SecureCargoFlow.ShipmentStatus",
              "name": "status",
              "type": "uint8"
            },
            {
              "internalType": "string",
              "name": "description",
              "type": "string"
            },
            {
              "internalType": "euint32",
              "name": "encryptedWeight",
              "type": "bytes32"
            },
            {
              "internalType": "euint8[]",
              "name": "encContentsBytes",
              "type": "bytes32[]"
            }
          ],
          "internalType": "struct SecureCargoFlow.CargoEvent[]",
          "name": "events",
          "type": "tuple[]"
        },
        {
          "internalType": "uint256",
          "name": "eventCount",
          "type": "uint256"
        }
      ],
      "stateMutability": "view",
      "type": "function"
    },
    {
      "inputs": [
        {
          "internalType": "string",
          "name": "trackingId",
          "type": "string"
        }
      ],
      "name": "getShipmentHistory",
      "outputs": [
        {
          "internalType": "string[]",
          "name": "locations",
          "type": "string[]"
        },
        {
          "internalType": "enum SecureCargoFlow.ShipmentStatus[]",
          "name": "statuses",
          "type": "uint8[]"
        },
        {
          "internalType": "uint256[]",
          "name": "timestamps",
          "type": "uint256[]"
        }
      ],
      "stateMutability": "view",
      "type": "function"
    },
    {
      "inputs": [],
      "name": "owner",
      "outputs": [
        {
          "internalType": "address",
          "name": "",
          "type": "address"
        }
      ],
      "stateMutability": "view",
      "type": "function"
    },
    {
      "inputs": [],
      "name": "protocolId",
      "outputs": [
        {
          "internalType": "uint256",
          "name": "",
          "type": "uint256"
        }
      ],
      "stateMutability": "pure",
      "type": "function"
    },
    {
      "inputs": [
        {
          "internalType": "string",
          "name": "trackingId",
          "type": "string"
        },
        {
          "internalType": "address",
          "name": "newWallet",
          "type": "address"
        }
      ],
      "name": "reconnectWallet",
      "outputs": [],
      "stateMutability": "nonpayable",
      "type": "function"
    },
    {
      "inputs": [
        {
          "internalType": "string",
          "name": "",
          "type": "string"
        }
      ],
      "name": "shipments",
      "outputs": [
        {
          "internalType": "string",
          "name": "trackingId",
          "type": "string"
        },
        {
          "internalType": "string",
          "name": "origin",
          "type": "string"
        },
        {
          "internalType": "string",
          "name": "destination",
          "type": "string"
        },
        {
          "internalType": "uint256",
          "name": "createdAt",
          "type": "uint256"
        },
        {
          "internalType": "uint256",
          "name": "estimatedDelivery",
          "type": "uint256"
        },
        {
          "internalType": "address",
          "name": "creator",
          "type": "address"
        },
        {
          "internalType": "bool",
          "name": "exists",
          "type": "bool"
        }
      ],
      "stateMutability": "view",
      "type": "function"
    },
    {
      "inputs": [],
      "name": "totalShipments",
      "outputs": [
        {
          "internalType": "uint256",
          "name": "",
          "type": "uint256"
        }
      ],
      "stateMutability": "view",
      "type": "function"
    },
    {
      "inputs": [
        {
          "internalType": "string",
          "name": "trackingId",
          "type": "string"
        },
        {
          "internalType": "enum SecureCargoFlow.ShipmentStatus",
          "name": "newStatus",
          "type": "uint8"
        }
      ],
      "name": "updateShipmentStatus",
      "outputs": [],
      "stateMutability": "nonpayable",
      "type": "function"
    },
    {
      "inputs": [
        {
          "internalType": "string",
          "name": "input",
          "type": "string"
        }
      ],
      "name": "validateInput",
      "outputs": [
        {
          "internalType": "bool",
          "name": "",
          "type": "bool"
        }
      ],
      "stateMutability": "pure",
      "type": "function"
    }
  ],
  "transactionHash": "0xfdf3f4fa1cdd5b7dee24fbca5a25c48c8184671d4734bc6e2fab920a9cd0f499",
  "args": [],
  "numDeployments": 1,
  "solcInputHash": "485e2a6d3ecfee9e7408d8af81b8c694",
  "bytecode": "0x60806040523461018a575f606061001461018e565b8281528260208201528260408201520152731364cbbf2cdf5032c47d8226a6f6fbd2afcdacac606061004461018e565b7350157cffd6bbfa2dece204a89ec419c23ef5755d80825273cd3ab3bd6bcc0c0bf3e27912a92043e817b1cf696020830181905273a02cda4ca3a71d7c46997716f4283aa851c28812604080850182905294909301949094527f9e7b61f58c47dc699ac88507c4f5bb9f121c03808c5676a8078fe583e464970080546001600160a01b031990811690921790557f9e7b61f58c47dc699ac88507c4f5bb9f121c03808c5676a8078fe583e4649701805482169094179093557f9e7b61f58c47dc699ac88507c4f5bb9f121c03808c5676a8078fe583e46497028054841690911790557f9e7b61f58c47dc699ac88507c4f5bb9f121c03808c5676a8078fe583e46497038054909216731364cbbf2cdf5032c47d8226a6f6fbd2afcdacac179091555f80546001600160a81b0319163360ff60a01b1916179055516134d790816101c28239f35b5f80fd5b60405190608082016001600160401b038111838210176101ad57604052565b634e487b7160e01b5f52604160045260245ffdfe60806040526004361015610011575f80fd5b5f5f3560e01c806303e39f0a14612845578063456495f6146122ae5780634abb94c5146128005780634e3861771461270557806351858e27146126e15780635ceaef5b146125d75780636855f678146122b35780636d5aa445146122ae5780637be1bb1b1461226457806381e06c421461220e57806382487208146121f95780638da5cb5b146121d4578063a283c49d146121b7578063ab8865d41461212e578063ad10faf4146120af578063b5ebf8bb146116d5578063d06d608e14610fd3578063da1f12ab14610fb6578063da34f3d514610e96578063dac539a214610d4a578063e46f01f214610a9b5763e7d5c46a1461010c575f80fd5b34610a98576040366003190112610a985760043567ffffffffffffffff8111610a965761013d903690600401612baa565b60056024351015610a965761017260ff6005604051602081865180838901835e81016001815203019020015460a01c16612e69565b6001600160a01b036005604051602081855180838801835e810160018152030190200154163303610a2b576101a681613055565b906005821015610a175760243582146109d2576101c56024358361321e565b1561098d576003604051602081845180838701835e810160018152030190200154610e108101809111610979574210610934576020610255603261020a6024356132bb565b6040519384917f537461747573206368616e67656420746f200000000000000000000000000000828401528051918291018484015e810187838201520301601f198101835282612b42565b6040908151906102658383612b42565b600d82527f537461747573205570646174650000000000000000000000000000000000000060208301526102b860ff60058551602081895180838c01835e81016001815203019020015460a01c16612e69565b6102c482511515613106565b6102d081511515613152565b8251602081865180838901835e810160038152030190205490869060608551602081895180838c01835e81016002815203019020546108da575b8551602081895180838c01835e810160028152030190209086519361032e85612b25565b8585526020850193898552428987015287606087015261035360243560808801612ecd565b60a086015260c085015260e084015280549068010000000000000000821015610716579061038691600182018155612cf6565b9190916108c657825182555180519067ffffffffffffffff82116107165781906103b36001850154612d0f565b601f8111610875575b50602090601f831160011461080d578b92610802575b50508160011b915f199060031b1c19161760018201555b848201516002820155606082015180519067ffffffffffffffff82116107165781906104186003850154612d0f565b601f81116107b1575b50602090601f8311600114610749578b9261073e575b50508160011b915f199060031b1c19161760038201555b6080820151600581101561072a5761046990600483016131ac565b60a082015180519067ffffffffffffffff82116107165761048d6005840154612d0f565b601f81116106ce575b50602090601f831160011461066157918060e094926007948d92610656575b50508160011b915f199060031b1c19161760058201555b60c08401516006820155019101519081519167ffffffffffffffff83116106425768010000000000000000831161064257815483835580841061061c575b5060200190885260208820885b83811061060857505050508251602081865180838901835e81016003815203019020610543815461319e565b905561054e84613039565b7fb27facc5621122875f54b39159f9c2c8c373c72eade9baeb78258e0562f91f7b845180610581339660243590836131c4565b0390a48051602081845180838701835e8101600381520301902054915f1983019283116105f4576105d27fe9181abb4ec1f045ee9e35e568670ee32f70797e007bc27a6dfbc85eaf530b2b91613039565b916105df81518096612bec565b6105ee60208601602435612bec565b3394a480f35b634e487b7160e01b85526011600452602485fd5b600190602084519401938184015501610517565b828a528360208b2091820191015b818110610637575061050a565b8a815560010161062a565b634e487b7160e01b89526041600452602489fd5b015190505f806104b5565b600584018b52818b209190601f1984168c5b8181106106b6575092600192859260079660e098961061069e575b505050811b0160058201556104cc565b01515f1960f88460031b161c191690555f808061068e565b92936020600181928786015181550195019301610673565b600584018b5260208b20601f840160051c8101916020851061070c575b601f0160051c01905b8181106107015750610496565b8b81556001016106f4565b90915081906106eb565b634e487b7160e01b8a52604160045260248afd5b634e487b7160e01b89526021600452602489fd5b015190505f80610437565b600385018c52818c209250601f1984168c5b8181106107995750908460019594939210610781575b505050811b01600382015561044e565b01515f1960f88460031b161c191690555f8080610771565b9293602060018192878601518155019501930161075b565b909150600384018b5260208b20601f840160051c8101602085106107fb575b90849392915b8d601f840160051c830182106107ee57505050610421565b81558594506001016107d6565b50806107d0565b015190505f806103d2565b600185018c52818c209250601f1984168c5b81811061085d5750908460019594939210610845575b505050811b0160018201556103e9565b01515f1960f88460031b161c191690555f8080610835565b9293602060018192878601518155019501930161081f565b909150600184018b5260208b20601f840160051c8101602085106108bf575b90849392915b8d601f840160051c830182106108b2575050506103bc565b815585945060010161089a565b5080610894565b634e487b7160e01b89526004899052602489fd5b50905060066108fe8551602081895180838c01835e81016002815203019020612cd0565b5001549061092f60076109288751602081818c805191829101835e81016002815203019020612cd0565b5001612ed9565b61030a565b60405162461bcd60e51b815260206004820152601b60248201527f546f6f206561726c7920666f7220737461747573206368616e676500000000006044820152606490fd5b634e487b7160e01b84526011600452602484fd5b60405162461bcd60e51b815260206004820152601960248201527f496e76616c696420737461747573207472616e736974696f6e000000000000006044820152606490fd5b60405162461bcd60e51b815260206004820152601260248201527f53746174757320616c72656164792073657400000000000000000000000000006044820152606490fd5b634e487b7160e01b83526021600452602483fd5b60405162461bcd60e51b815260206004820152602760248201527f4f6e6c7920736869706d656e742063726561746f722063616e2075706461746560448201527f20737461747573000000000000000000000000000000000000000000000000006064820152608490fd5b505b80fd5b5034610a98576020366003190112610a985760043567ffffffffffffffff8111610a9657610acd903690600401612baa565b90610ad66131e5565b50604051610b0460ff6005855193602081818901968088835e81016001815203019020015460a01c16612e69565b60405160208185518085835e810160018152030190209160ff600560405194610b2c86612af5565b604051610b4481610b3d8185612d47565b0382612b42565b8652604051610b5a81610b3d8160018601612d47565b6020870152604051610b7381610b3d8160028601612d47565b6040870152600381015460608701526004810154608087015201546001600160a01b03811660a086015260a01c16151560c084015260405160208186518086835e8101600281520301902091825494610bcb86612eb5565b95610bd96040519788612b42565b80875260208701809585526020852085915b838310610d2c5750505050602090604051928391518091835e810160038152030190205490610c2560405194606086526060860190612df6565b94848603602086015251808652602086019160208260051b8801019492815b838310610c58578780888860408301520390f35b9091929395601f1989820301835286518051825260e0610ccf610cab610c8f60208501516101006020880152610100870190612bc8565b6040850151604087015260608501518682036060880152612bc8565b610cbd60808501516080870190612bec565b60a084015185820360a0870152612bc8565b9160c081015160c085015201519160e08183039101526020808351928381520192019083905b808210610d145750505060208060019298019301930191939290610c44565b90919260208060019286518152019401920190610cf5565b60086020600192610d3c85612f23565b815201920192019190610beb565b5034610a98576060366003190112610a985760043567ffffffffffffffff8111610a9657610d7c903690600401612baa565b6024356044359160405191610db160ff600584519560208181880198808a835e81016001815203019020015460a01c16612e69565b610dd260405160208185518088835e81016002815203019020548210612fcf565b6007610df3826040516020818751808a835e81016002815203019020612cf6565b500154841015610e51576007926020610e2093604051928391518091835e81016002815203019020612cf6565b50018054821015610e3d5782526020918290200154604051908152f35b634e487b7160e01b83526032600452602483fd5b60405162461bcd60e51b815260206004820152601860248201527f4279746520696e646578206f7574206f6620626f756e647300000000000000006044820152606490fd5b5034610a98576020366003190112610a98576004359067ffffffffffffffff8211610a9857610fb2610ecb3660048501612baa565b610ed36131e5565b50602060405191610f0360ff6005835195858181870198808a835e81016001815203019020015460a01c16612e69565b604051928391518091835e8101600181520301902060ff600560405192610f2984612af5565b604051610f3a81610b3d8185612d47565b8452604051610f5081610b3d8160018601612d47565b6020850152604051610f6981610b3d8160028601612d47565b6040850152600381015460608501526004810154608085015201546001600160a01b03811660a084015260a01c16151560c0820152604051918291602083526020830190612df6565b0390f35b5034610a985780600319360112610a985760206040516127118152f35b5034610a98576080366003190112610a985760043567ffffffffffffffff8111610a9657611005903690600401612baa565b60243567ffffffffffffffff81116116d157611025903690600401612baa565b60443567ffffffffffffffff81116116cd57611045903690600401612baa565b9160405160ff6005835192602081818701958087835e81016001815203019020015460a01c16611688576006825110611643574260643511156115d8576301e1338042018042116115c4576064351161155957604051906110a582612af5565b828252602082019084825285604084015242606084015260643560808401523360a0840152600160c08401526020604051809286518091835e8101600181520301902090825180519067ffffffffffffffff82116106425781906111098554612d0f565b601f8111611509575b50602090601f83116001146114a7578a9261149c575b50508160011b915f199060031b1c19161782555b5180519067ffffffffffffffff821161148857819061115e6001850154612d0f565b601f8111611435575b50602090601f83116001146113cd5789926113c2575b50508160011b915f199060031b1c19161760018201555b60028101604083015180519067ffffffffffffffff8211610642576111b98354612d0f565b601f811161137d575b5060209089601f84116001146112e7576112ce956112a595856112c09a967fd4d49b67473eae11e949ce94c193820671066ffde12e103f7de0116ccc111f4e9c9a9660c096600596926112dc575b50508160011b915f199060031b1c19161790555b606084015160038201556080840151600482015501916001600160a01b038060a0830151161673ffffffffffffffffffffffffffffffffffffffff198454161783550151151560ff60a01b1974ff000000000000000000000000000000000000000083549260a01b16911617905561129d60045461319e565b600455613039565b94604051938493338552608060208601526080850190612bc8565b908382036040850152612bc8565b60643560608301520390a280f35b015190505f80611210565b50838a52818a209190601f1984168b5b8181106113655750956112a5956001867fd4d49b67473eae11e949ce94c193820671066ffde12e103f7de0116ccc111f4e9c9a9660c0966005966112c09e9a6112ce9d1061134d575b505050811b019055611224565b01515f1960f88460031b161c191690555f8080611340565b929360206001819287860151815501950193016112f7565b838a5260208a20601f840160051c810191602085106113b8575b601f0160051c01905b8181106113ad57506111c2565b8a81556001016113a0565b9091508190611397565b015190505f8061117d565b600185018a52818a209250601f1984168a5b81811061141d5750908460019594939210611405575b505050811b016001820155611194565b01515f1960f88460031b161c191690555f80806113f5565b929360206001819287860151815501950193016113df565b90915060018401895260208920601f840160051c8101916020851061147e575b90601f859493920160051c01905b8181106114705750611167565b8a8155849350600101611463565b9091508190611455565b634e487b7160e01b88526041600452602488fd5b015190505f80611128565b858b52818b209250601f1984168b5b8181106114f157509084600195949392106114d9575b505050811b01825561113c565b01515f1960f88460031b161c191690555f80806114cc565b929360206001819287860151815501950193016114b6565b909150848a5260208a20601f840160051c8101916020851061154f575b90601f859493920160051c01905b8181106115415750611112565b8b8155849350600101611534565b9091508190611526565b60405162461bcd60e51b815260206004820152603b60248201527f457374696d617465642064656c69766572792063616e6e6f74206265206d6f7260448201527f65207468616e2031207965617220696e207468652066757475726500000000006064820152608490fd5b634e487b7160e01b86526011600452602486fd5b60405162461bcd60e51b815260206004820152602860248201527f457374696d617465642064656c6976657279206d75737420626520696e20746860448201527f65206675747572650000000000000000000000000000000000000000000000006064820152608490fd5b60405162461bcd60e51b815260206004820152601560248201527f547261636b696e6720494420746f6f2073686f727400000000000000000000006044820152606490fd5b60405162461bcd60e51b815260206004820152601760248201527f536869706d656e7420616c7265616479206578697374730000000000000000006044820152606490fd5b8380fd5b8280fd5b5034612026576101003660031901126120265760043567ffffffffffffffff811161202657611708903690600401612baa565b60243567ffffffffffffffff811161202657611728903690600401612baa565b6044359160058310156120265760643567ffffffffffffffff811161202657611755903690600401612baa565b9060a43567ffffffffffffffff811161202657611776903690600401612dc8565b67ffffffffffffffff60c495929535116120265736602360c4350112156120265760c435600401359567ffffffffffffffff8711612026573660248860051b60c4350101116120265760e43567ffffffffffffffff8111612026576117df903690600401612dc8565b94909561180c60ff6005604051602081875180838a01835e81016001815203019020015460a01c16612e69565b6001600160a01b036005604051602081865180838901835e81016001815203019020015416330361205e5760206118f96118a36001600160a01b039a61185489511515613106565b61186085511515613152565b6040518481885180838b01835e8101600381520301902054976040518581895180838c01835e8101600381520301902061189a815461319e565b90553691612b64565b7f9e7b61f58c47dc699ac88507c4f5bb9f121c03808c5676a8078fe583e464970154905f6040519c8d8095819463196d0b9b60e01b83526084356004840152336024840152608060448401526084830190612bc8565b600460648301520393165af197881561201b575f9861202a575b506001600160a01b037f9e7b61f58c47dc699ac88507c4f5bb9f121c03808c5676a8078fe583e46497005416803b1561202657604051630f8e573b60e21b8152600481018a9052336024820152905f908290604490829084905af1801561201b57612006575b50611984308961344f565b61198e338961344f565b61199789612eb5565b976119a5604051998a612b42565b8989526119b18a612eb5565b601f19013660208b01378a5b8b8b821015611b5c576001600160a01b039190602090611a40906119e2368d8f612b64565b7f9e7b61f58c47dc699ac88507c4f5bb9f121c03808c5676a8078fe583e4649701549160405196878095819463196d0b9b60e01b835260248a60051b60c4350101356004840152336024840152608060448401526084830190612bc8565b600260648301520393165af1918215611b51578d92611b1e575b506001600160a01b037f9e7b61f58c47dc699ac88507c4f5bb9f121c03808c5676a8078fe583e46497005416803b15611b1a57604051630f8e573b60e21b815260048101849052336024820152908e9081908390604490829084905af1918215611b0d578d92611af0575b505082600193611ad884611aea94612fbb565b52611ae3308261344f565b339061344f565b016119bd565b81925090611afd91612b42565b611b09578a8d5f611ac5565b8c80fd5b50604051903d90823e3d90fd5b8d80fd5b9091506020813d8211611b49575b81611b3960209383612b42565b81010312611b095751905f611a5a565b3d9150611b2c565b6040513d8f823e3d90fd5b975050908891604051602081865180838901835e81016002815203019020805490680100000000000000008210156107165790611b9e91600182018155612cf6565b5050604051602081865180838901835e81016002815203019020545f198101908111611ff257611be590604051602081885180838b01835e81016002815203019020612cf6565b509186835560018301855167ffffffffffffffff8111611e7a57611c098254612d0f565b601f8111611fad575b50806020601f8211600114611f4b578c91611f40575b508160011b915f199060031b1c19161790555b42600284015560038301885167ffffffffffffffff8111611e7a57611c608254612d0f565b601f8111611efb575b50806020601f8211600114611e99578c91611e8e575b508160011b915f199060031b1c19161790555b611c9f86600485016131ac565b8051600584019167ffffffffffffffff8211611e7a57611cbf8354612d0f565b601f8111611e35575b50602090601f8311600114611dce57600795949392918c9183611dc3575b50508160011b915f199060031b1c19161790555b60068201550181519167ffffffffffffffff831161148857680100000000000000008311611488578154838355808410611d9d575b5060200190875260208720875b838110611d895750505050611d83611d747fb27facc5621122875f54b39159f9c2c8c373c72eade9baeb78258e0562f91f7b92613039565b926040519182913397836131c4565b0390a480f35b600190602084519401938184015501611d3c565b8289528360208a2091820191015b818110611db85750611d2f565b898155600101611dab565b015190508c80611ce6565b838c52818c209190601f1984168d5b818110611e1d57509160019391856007999897969410611e05575b505050811b019055611cfa565b01515f1960f88460031b161c191690558c8080611df8565b92936020600181928786015181550195019301611ddd565b838c5260208c20601f840160051c81019160208510611e70575b601f0160051c01905b818110611e655750611cc8565b8c8155600101611e58565b9091508190611e4f565b634e487b7160e01b8b52604160045260248bfd5b90508a01518c611c7f565b838d52808d209150601f1983168d5b8d828210611ee35750509083600194939210611ecb575b5050811b019055611c92565b8c01515f1960f88460031b161c191690558c80611ebf565b60018495602093958493015181550194019201611ea8565b828c5260208c20601f830160051c81019160208410611f36575b601f0160051c01905b818110611f2b5750611c69565b8c8155600101611f1e565b9091508190611f15565b90508701518c611c28565b838d52808d209150601f1983168d5b8a828210611f955750509083600194939210611f7d575b5050811b019055611c3b565b8901515f1960f88460031b161c191690558c80611f71565b60018495602093958493015181550194019201611f5a565b828c5260208c20601f830160051c81019160208410611fe8575b601f0160051c01905b818110611fdd5750611c12565b8c8155600101611fd0565b9091508190611fc7565b634e487b7160e01b89526011600452602489fd5b612013919a505f90612b42565b5f985f611979565b6040513d5f823e3d90fd5b5f80fd5b9097506020813d602011612056575b8161204660209383612b42565b810103126120265751965f611913565b3d9150612039565b60405162461bcd60e51b8152602060048201526024808201527f4f6e6c7920736869706d656e742063726561746f722063616e20616464206576604482015263656e747360e01b6064820152608490fd5b346120265760203660031901126120265760043567ffffffffffffffff8111612026576120e26020913690600401612baa565b816040519161211060ff6005835195858181870198808a835e81016001815203019020015460a01c16612e69565b604051928391518091835e8101600381520301902054604051908152f35b3461202657602060066121ac61214336612bf9565b90846040519161217260ff6005835195858181870198808a835e81016001815203019020015460a01c16612e69565b612192604051838184518088835e81016002815203019020548510612fcf565b604051928391518091835e81016002815203019020612cf6565b500154604051908152f35b34612026575f366003190112612026576020600454604051908152f35b34612026575f3660031901126120265760206001600160a01b035f5416604051908152f35b3461202657602060076121ac61214336612bf9565b346120265760203660031901126120265760043567ffffffffffffffff81116120265760208061224381933690600401612baa565b604051928184925191829101835e8101600381520301902054604051908152f35b346120265760203660031901126120265760043567ffffffffffffffff81116120265761229f61229a6020923690600401612baa565b613055565b6122ac6040518092612bec565bf35b612c2b565b346120265760403660031901126120265760043567ffffffffffffffff8111612026576122e4903690600401612baa565b6024356001600160a01b038116809103612026575f5460ff8160a01c166125925760ff60a01b19600160a01b9116175f556040519161234360ff600583519560208181870198808a835e81016001815203019020015460a01c16612e69565b6001600160a01b03600560405160208185518089835e8101600181520301902001541633036125275781156124d85733821461246d577fd4d49b67473eae11e949ce94c193820671066ffde12e103f7de0116ccc111f4e91600560405160208185518089835e81016001815203019020018173ffffffffffffffffffffffffffffffffffffffff19825416179055600160405160208185518089835e810184815203019020019161245661242b600460026040516020818751808d835e8101600181520301902001976020604051809287518091835e81016001815203019020015492613039565b956124486040519586958652608060208701526080860190612d47565b908482036040860152612d47565b9060608301520390a25f805460ff60a01b19169055005b60405162461bcd60e51b815260206004820152602960248201527f4e65772077616c6c6574206d75737420626520646966666572656e742066726f60448201527f6d2063757272656e7400000000000000000000000000000000000000000000006064820152608490fd5b60405162461bcd60e51b815260206004820152602160248201527f4e65772077616c6c65742063616e6e6f74206265207a65726f206164647265736044820152607360f81b6064820152608490fd5b60405162461bcd60e51b815260206004820152602960248201527f4f6e6c792063757272656e742063726561746f722063616e207265636f6e6e6560448201527f63742077616c6c657400000000000000000000000000000000000000000000006064820152608490fd5b60405162461bcd60e51b815260206004820152600e60248201527f5265656e7472616e742063616c6c0000000000000000000000000000000000006044820152606490fd5b346120265760203660031901126120265760043567ffffffffffffffff81116120265760208061260e61269c933690600401612baa565b604051928184925191829101835e810160018152030190206040519061263f826126388184612d47565b0383612b42565b60ff60405161265581610b3d8160018701612d47565b604051926126718461266a8160028501612d47565b0385612b42565b6126b86003820154946126aa6005600485015494015494604051998a9960e08b5260e08b0190612bc8565b9089820360208b0152612bc8565b908782036040890152612bc8565b93606086015260808501526001600160a01b03811660a085015260a01c16151560c08301520390f35b34612026575f366003190112612026575f805460ff60a01b1916600160a01b179055005b346120265760208061271636612bf9565b9290604051928184925191829101835e810160028152030190209081548110156120265761274391612cf6565b508054604051916127628361275b8160018501612d47565b0384612b42565b6127f660028201546040519261277f8461266a8160038501612d47565b6127e96127de60ff600484015416936006604051946127ac866127a58160058501612d47565b0387612b42565b0154966127cb6040519a8b9a8b5260e060208c015260e08b0190612bc8565b9160408a015288820360608a0152612bc8565b926080870190612bec565b84820360a0860152612bc8565b9060c08301520390f35b346120265760203660031901126120265760043567ffffffffffffffff81116120265761283b6128366020923690600401612baa565b61301b565b6040519015158152f35b346120265760203660031901126120265760043567ffffffffffffffff811161202657612876903690600401612baa565b6040516128a360ff6005845193602081818801968088835e81016001815203019020015460a01c16612e69565b60405160208184518085835e8101600281520301902054916128c483612eb5565b926128d26040519485612b42565b808452601f196128e182612eb5565b015f5b818110612ae25750506128f681612eb5565b926129046040519485612b42565b81845261291082612eb5565b602085019290601f190136843761292681612eb5565b916129346040519384612b42565b81835261294082612eb5565b602084019590601f19013687375f5b838110612a455750505050604051948594606086016060875282518091526080870190602060808260051b8a01019401915f905b828210612a0f57505050506020908683038288015251918281520192905f5b8181106129e857505050602090848303604086015251918281520191905f5b8181106129cf575050500390f35b82518452859450602093840193909201916001016129c1565b919495509192602080826129ff6001948951612bec565b01950191019186959493926129a2565b9193946020612a31819260019496999a9b9c607f199082030186528951612bc8565b970192019201899897969594939192612983565b612a73612a6d8260409b9798999a9b516020818751808a835e81016002815203019020612cf6565b50612f23565b906060820151612a838288612fbb565b52612a8e8187612fbb565b5060808201516005811015612ace57600192612ab5604092612ab0858f612fbb565b612ecd565b0151612ac18289612fbb565b520197969594939761294f565b634e487b7160e01b5f52602160045260245ffd5b60606020828801810191909152016128e4565b60e0810190811067ffffffffffffffff821117612b1157604052565b634e487b7160e01b5f52604160045260245ffd5b610100810190811067ffffffffffffffff821117612b1157604052565b90601f8019910116810190811067ffffffffffffffff821117612b1157604052565b92919267ffffffffffffffff8211612b115760405191612b8e601f8201601f191660200184612b42565b829481845281830111612026578281602093845f960137010152565b9080601f8301121561202657816020612bc593359101612b64565b90565b805180835260209291819084018484015e5f828201840152601f01601f1916010190565b906005821015612ace5752565b6040600319820112612026576004359067ffffffffffffffff821161202657612c2491600401612baa565b9060243590565b3461202657612c6f612a6d612c3f36612bf9565b9060206040519161217260ff6005835195858181870198808a835e81016001815203019020015460a01c16612e69565b805160408201519160608101516080820151906005821015612ace57612cc3612cb860a0610fb2950151926040519788978852602088015260a0604088015260a0870190612bc8565b926060860190612bec565b8382036080850152612bc8565b805415612ce2575f5260205f20905f90565b634e487b7160e01b5f52603260045260245ffd5b8054821015612ce2575f5260205f209060031b01905f90565b90600182811c92168015612d3d575b6020831014612d2957565b634e487b7160e01b5f52602260045260245ffd5b91607f1691612d1e565b5f9291815491612d5683612d0f565b8083529260018116908115612dab5750600114612d7257505050565b5f9081526020812093945091925b838310612d91575060209250010190565b600181602092949394548385870101520191019190612d80565b915050602093945060ff929192191683830152151560051b010190565b9181601f840112156120265782359167ffffffffffffffff8311612026576020838186019501011161202657565b9060c080612e37612e25612e13865160e0875260e0870190612bc8565b60208701518682036020880152612bc8565b60408601518582036040870152612bc8565b9360608101516060850152608081015160808501526001600160a01b0360a08201511660a08501520151151591015290565b15612e7057565b60405162461bcd60e51b815260206004820152601760248201527f536869706d656e7420646f6573206e6f742065786973740000000000000000006044820152606490fd5b67ffffffffffffffff8111612b115760051b60200190565b6005821015612ace5752565b90604051918281549182825260208201905f5260205f20925f5b818110612f0a575050612f0892500383612b42565b565b8454835260019485019487945060209093019201612ef3565b90604051612f3081612b25565b60e0612fb66007839580548552604051612f5181610b3d8160018601612d47565b602086015260028101546040860152604051612f7481610b3d8160038601612d47565b6060860152612f8d60ff60048301541660808701612ecd565b604051612fa181610b3d8160058601612d47565b60a0860152600681015460c086015201612ed9565b910152565b8051821015612ce25760209160051b010190565b15612fd657565b60405162461bcd60e51b815260206004820152601460248201527f4576656e7420646f6573206e6f742065786973740000000000000000000000006044820152606490fd5b5160018110613034576103e88111613034576101f41090565b505f90565b602090604051918183925191829101835e81015f815203902090565b60405161308260ff6005845193602081818801968088835e81016001815203019020015460a01c16612e69565b60405160208184518085835e810160028152030190205415613100576020604051818185518086835e8101600281520301902092604051928391518091835e81016002815203019020545f1981019081116130ec576130e560049160ff93612cf6565b5001541690565b634e487b7160e01b5f52601160045260245ffd5b50505f90565b1561310d57565b60405162461bcd60e51b815260206004820152601860248201527f4c6f636174696f6e2063616e6e6f7420626520656d70747900000000000000006044820152606490fd5b1561315957565b60405162461bcd60e51b815260206004820152601b60248201527f4465736372697074696f6e2063616e6e6f7420626520656d70747900000000006044820152606490fd5b5f1981146130ec5760010190565b906005811015612ace5760ff80198354169116179055565b929160206131dd612f0893604087526040870190612bc8565b940190612bec565b604051906131f282612af5565b5f60c0836060815260606020820152606060408201528260608201528260808201528260a08201520152565b6005811015612ace578015806132a8575b61327b576001811480613295575b61327b576002811480613282575b61327b576003149081613267575b50613262575f90565b600190565b90506005811015612ace576004145f613259565b5050600190565b506005821015612ace576003821461324b565b506005821015612ace576002821461323d565b506005821015612ace576001821461322f565b6005811015612ace57801561341357600181146133d7576002811461339b576003811461335f57600414613324576040516132f7604082612b42565b600781527f556e6b6e6f776e00000000000000000000000000000000000000000000000000602082015290565b604051613332604082612b42565b600981527f44656c6976657265640000000000000000000000000000000000000000000000602082015290565b5060405161336e604082612b42565b600781527f4172726976656400000000000000000000000000000000000000000000000000602082015290565b506040516133aa604082612b42565b601081527f437573746f6d73436c656172616e636500000000000000000000000000000000602082015290565b506040516133e6604082612b42565b600981527f496e5472616e7369740000000000000000000000000000000000000000000000602082015290565b50604051613422604082612b42565b600781527f4372656174656400000000000000000000000000000000000000000000000000602082015290565b6001600160a01b037f9e7b61f58c47dc699ac88507c4f5bb9f121c03808c5676a8078fe583e4649700541691823b1561202657604051635ca4b5b160e11b815260048101929092526001600160a01b03166024820152905f908290604490829084905af1801561201b576134c05750565b5f612f0891612b4256fea164736f6c634300081b000a",
  "devdoc": {
    "details": "Uses Fully Homomorphic Encryption (FHEVM) for encrypting sensitive cargo data",
    "kind": "dev",
    "methods": {
      "addCargoEvent(string,string,uint8,string,bytes32,bytes,bytes32[],bytes)": {
        "params": {
          "description": "Event description (public)",
          "encContentsBytes": "Encrypted contents bytes (externalEuint8[])",
          "encWeight": "Encrypted weight handle (externalEuint32)",
          "inputProof": "Input proof for contents (shared with weight)",
          "location": "Current location",
          "status": "Current shipment status",
          "trackingId": "Shipment tracking ID",
          "weightInputProof": "Input proof for weight"
        }
      },
      "createShipment(string,string,string,uint256)": {
        "params": {
          "destination": "Destination location",
          "estimatedDeliveryTimestamp": "Estimated delivery timestamp",
          "origin": "Origin location",
          "trackingId": "Unique tracking identifier"
        }
      },
      "emergencyPause()": {
        "details": "BUG: Access control is wrong - should be onlyOwner but missing modifier"
      },
      "getCargoEvent(string,uint256)": {
        "params": {
          "eventIndex": "Event index",
          "trackingId": "Shipment tracking ID"
        },
        "returns": {
          "description": "Event description",
          "eventId": "Event ID",
          "location": "Event location",
          "status": "Event status",
          "timestamp": "Event timestamp"
        }
      },
      "getCargoEventPublic(string,uint256)": {
        "params": {
          "eventIndex": "Event index",
          "trackingId": "Shipment tracking ID"
        },
        "returns": {
          "description": "Event description",
          "eventId": "Event ID",
          "location": "Event location",
          "status": "Event status",
          "timestamp": "Event timestamp"
        }
      },
      "getContentsLength(string,uint256)": {
        "params": {
          "eventIndex": "Event index",
          "trackingId": "Shipment tracking ID"
        },
        "returns": {
          "_0": "length Number of encrypted bytes"
        }
      },
      "getCurrentStatus(string)": {
        "params": {
          "trackingId": "Shipment tracking ID"
        },
        "returns": {
          "_0": "current status"
        }
      },
      "getEncryptedContentsByte(string,uint256,uint256)": {
        "params": {
          "byteIndex": "Byte index",
          "eventIndex": "Event index",
          "trackingId": "Shipment tracking ID"
        },
        "returns": {
          "_0": "encryptedByte Encrypted byte handle"
        }
      },
      "getEncryptedWeight(string,uint256)": {
        "params": {
          "eventIndex": "Event index",
          "trackingId": "Shipment tracking ID"
        },
        "returns": {
          "_0": "encryptedWeight Encrypted weight handle"
        }
      },
      "getEventCount(string)": {
        "params": {
          "trackingId": "Shipment tracking ID"
        },
        "returns": {
          "_0": "count Number of events"
        }
      },
      "getShipment(string)": {
        "params": {
          "trackingId": "Shipment tracking ID"
        },
        "returns": {
          "_0": "shipment Shipment struct"
        }
      },
      "getShipmentDetails(string)": {
        "params": {
          "trackingId": "Shipment tracking ID"
        },
        "returns": {
          "eventCount": "Total number of events",
          "events": "Array of all cargo events",
          "shipment": "Basic shipment info"
        }
      },
      "getShipmentHistory(string)": {
        "params": {
          "trackingId": "Shipment tracking ID"
        },
        "returns": {
          "locations": "Array of locations visited",
          "statuses": "Array of status changes",
          "timestamps": "Array of event timestamps"
        }
      },
      "reconnectWallet(string,address)": {
        "params": {
          "newWallet": "New wallet address to connect",
          "trackingId": "Shipment tracking ID"
        }
      },
      "updateShipmentStatus(string,uint8)": {
        "params": {
          "newStatus": "New shipment status",
          "trackingId": "Shipment tracking ID"
        }
      },
      "validateInput(string)": {
        "params": {
          "input": "String input to validate"
        },
        "returns": {
          "_0": "isValid Whether input is valid"
        }
      }
    },
    "title": "Secure Cargo Flow - Encrypted Cargo Tracking System",
    "version": 1
  },
  "userdoc": {
    "events": {
      "ShipmentCreated(string,address,string,string,uint256)": {
        "notice": "Events"
      }
    },
    "kind": "user",
    "methods": {
      "addCargoEvent(string,string,uint8,string,bytes32,bytes,bytes32[],bytes)": {
        "notice": "Add a cargo event to track shipment progress with encrypted data"
      },
      "cargoEvents(string,uint256)": {
        "notice": "Mapping from tracking ID to cargo events"
      },
      "constructor": {
        "notice": "Constructor - initializes contract with owner"
      },
      "createShipment(string,string,string,uint256)": {
        "notice": "Create a new shipment"
      },
      "emergencyPause()": {
        "notice": "Emergency pause function"
      },
      "eventCounts(string)": {
        "notice": "Mapping from tracking ID to event count"
      },
      "getCargoEvent(string,uint256)": {
        "notice": "Get cargo event details"
      },
      "getCargoEventPublic(string,uint256)": {
        "notice": "Get public cargo event data (location, status, timestamp)"
      },
      "getContentsLength(string,uint256)": {
        "notice": "Get encrypted contents length for an event"
      },
      "getCurrentStatus(string)": {
        "notice": "Get current status of a shipment"
      },
      "getEncryptedContentsByte(string,uint256,uint256)": {
        "notice": "Get encrypted contents byte at index"
      },
      "getEncryptedWeight(string,uint256)": {
        "notice": "Get encrypted weight for an event"
      },
      "getEventCount(string)": {
        "notice": "Get cargo event count for a shipment"
      },
      "getShipment(string)": {
        "notice": "Get shipment details"
      },
      "getShipmentDetails(string)": {
        "notice": "Get complete shipment details including all events"
      },
      "getShipmentHistory(string)": {
        "notice": "Get shipment history summary"
      },
      "owner()": {
        "notice": "Contract owner"
      },
      "reconnectWallet(string,address)": {
        "notice": "Reconnect wallet for shipment management"
      },
      "shipments(string)": {
        "notice": "Mapping from tracking ID to shipment"
      },
      "totalShipments()": {
        "notice": "Total shipment count"
      },
      "updateShipmentStatus(string,uint8)": {
        "notice": "Update shipment status with validation"
      },
      "validateInput(string)": {
        "notice": "Validate input parameters for security"
      }
    },
    "notice": "A blockchain-based logistics tracking system with end-to-end encryption using FHEVM",
    "version": 1
  },
  "storageLayout": {
    "storage": [
      {
        "astId": 39041,
        "contract": "contracts/SecureCargoFlow.sol:SecureCargoFlow",
        "label": "owner",
        "offset": 0,
        "slot": "0",
        "type": "t_address"
      },
      {
        "astId": 39044,
        "contract": "contracts/SecureCargoFlow.sol:SecureCargoFlow",
        "label": "locked",
        "offset": 20,
        "slot": "0",
        "type": "t_bool"
      },
      {
        "astId": 39099,
        "contract": "contracts/SecureCargoFlow.sol:SecureCargoFlow",
        "label": "shipments",
        "offset": 0,
        "slot": "1",
        "type": "t_mapping(t_string_memory_ptr,t_struct(Shipment)39093_storage)"
      },
      {
        "astId": 39106,
        "contract": "contracts/SecureCargoFlow.sol:SecureCargoFlow",
        "label": "cargoEvents",
        "offset": 0,
        "slot": "2",
        "type": "t_mapping(t_string_memory_ptr,t_array(t_struct(CargoEvent)39077_storage)dyn_storage)"
      },
      {
        "astId": 39111,
        "contract": "contracts/SecureCargoFlow.sol:SecureCargoFlow",
        "label": "eventCounts",
        "offset": 0,
        "slot": "3",
        "type": "t_mapping(t_string_memory_ptr,t_uint256)"
      },
      {
        "astId": 39114,
        "contract": "contracts/SecureCargoFlow.sol:SecureCargoFlow",
        "label": "totalShipments",
        "offset": 0,
        "slot": "4",
        "type": "t_uint256"
      }
    ],
    "types": {
      "t_address": {
        "encoding": "inplace",
        "label": "address",
        "numberOfBytes": "20"
      },
      "t_array(t_struct(CargoEvent)39077_storage)dyn_storage": {
        "base": "t_struct(CargoEvent)39077_storage",
        "encoding": "dynamic_array",
        "label": "struct SecureCargoFlow.CargoEvent[]",
        "numberOfBytes": "32"
      },
      "t_array(t_userDefinedValueType(euint8)40487)dyn_storage": {
        "base": "t_userDefinedValueType(euint8)40487",
        "encoding": "dynamic_array",
        "label": "euint8[]",
        "numberOfBytes": "32"
      },
      "t_bool": {
        "encoding": "inplace",
        "label": "bool",
        "numberOfBytes": "1"
      },
      "t_enum(ShipmentStatus)39055": {
        "encoding": "inplace",
        "label": "enum SecureCargoFlow.ShipmentStatus",
        "numberOfBytes": "1"
      },
      "t_mapping(t_string_memory_ptr,t_array(t_struct(CargoEvent)39077_storage)dyn_storage)": {
        "encoding": "mapping",
        "key": "t_string_memory_ptr",
        "label": "mapping(string => struct SecureCargoFlow.CargoEvent[])",
        "numberOfBytes": "32",
        "value": "t_array(t_struct(CargoEvent)39077_storage)dyn_storage"
      },
      "t_mapping(t_string_memory_ptr,t_struct(Shipment)39093_storage)": {
        "encoding": "mapping",
        "key": "t_string_memory_ptr",
        "label": "mapping(string => struct SecureCargoFlow.Shipment)",
        "numberOfBytes": "32",
        "value": "t_struct(Shipment)39093_storage"
      },
      "t_mapping(t_string_memory_ptr,t_uint256)": {
        "encoding": "mapping",
        "key": "t_string_memory_ptr",
        "label": "mapping(string => uint256)",
        "numberOfBytes": "32",
        "value": "t_uint256"
      },
      "t_string_memory_ptr": {
        "encoding": "bytes",
        "label": "string",
        "numberOfBytes": "32"
      },
      "t_string_storage": {
        "encoding": "bytes",
        "label": "string",
        "numberOfBytes": "32"
      },
      "t_struct(CargoEvent)39077_storage": {
        "encoding": "inplace",
        "label": "struct SecureCargoFlow.CargoEvent",
        "members": [
          {
            "astId": 39058,
            "contract": "contracts/SecureCargoFlow.sol:SecureCargoFlow",
            "label": "eventId",
            "offset": 0,
            "slot": "0",
            "type": "t_uint256"
          },
          {
            "astId": 39060,
            "contract": "contracts/SecureCargoFlow.sol:SecureCargoFlow",
            "label": "trackingId",
            "offset": 0,
            "slot": "1",
            "type": "t_string_storage"
          },
          {
            "astId": 39062,
            "contract": "contracts/SecureCargoFlow.sol:SecureCargoFlow",
            "label": "timestamp",
            "offset": 0,
            "slot": "2",
            "type": "t_uint256"
          },
          {
            "astId": 39064,
            "contract": "contracts/SecureCargoFlow.sol:SecureCargoFlow",
            "label": "location",
            "offset": 0,
            "slot": "3",
            "type": "t_string_storage"
          },
          {
            "astId": 39067,
            "contract": "contracts/SecureCargoFlow.sol:SecureCargoFlow",
            "label": "status",
            "offset": 0,
            "slot": "4",
            "type": "t_enum(ShipmentStatus)39055"
          },
          {
            "astId": 39069,
            "contract": "contracts/SecureCargoFlow.sol:SecureCargoFlow",
            "label": "description",
            "offset": 0,
            "slot": "5",
            "type": "t_string_storage"
          },
          {
            "astId": 39072,
            "contract": "contracts/SecureCargoFlow.sol:SecureCargoFlow",
            "label": "encryptedWeight",
            "offset": 0,
            "slot": "6",
            "type": "t_userDefinedValueType(euint32)40493"
          },
          {
            "astId": 39076,
            "contract": "contracts/SecureCargoFlow.sol:SecureCargoFlow",
            "label": "encContentsBytes",
            "offset": 0,
            "slot": "7",
            "type": "t_array(t_userDefinedValueType(euint8)40487)dyn_storage"
          }
        ],
        "numberOfBytes": "256"
      },
      "t_struct(Shipment)39093_storage": {
        "encoding": "inplace",
        "label": "struct SecureCargoFlow.Shipment",
        "members": [
          {
            "astId": 39080,
            "contract": "contracts/SecureCargoFlow.sol:SecureCargoFlow",
            "label": "trackingId",
            "offset": 0,
            "slot": "0",
            "type": "t_string_storage"
          },
          {
            "astId": 39082,
            "contract": "contracts/SecureCargoFlow.sol:SecureCargoFlow",
            "label": "origin",
            "offset": 0,
            "slot": "1",
            "type": "t_string_storage"
          },
          {
            "astId": 39084,
            "contract": "contracts/SecureCargoFlow.sol:SecureCargoFlow",
            "label": "destination",
            "offset": 0,
            "slot": "2",
            "type": "t_string_storage"
          },
          {
            "astId": 39086,
            "contract": "contracts/SecureCargoFlow.sol:SecureCargoFlow",
            "label": "createdAt",
            "offset": 0,
            "slot": "3",
            "type": "t_uint256"
          },
          {
            "astId": 39088,
            "contract": "contracts/SecureCargoFlow.sol:SecureCargoFlow",
            "label": "estimatedDelivery",
            "offset": 0,
            "slot": "4",
            "type": "t_uint256"
          },
          {
            "astId": 39090,
            "contract": "contracts/SecureCargoFlow.sol:SecureCargoFlow",
            "label": "creator",
            "offset": 0,
            "slot": "5",
            "type": "t_address"
          },
          {
            "astId": 39092,
            "contract": "contracts/SecureCargoFlow.sol:SecureCargoFlow",
            "label": "exists",
            "offset": 20,
            "slot": "5",
            "type": "t_bool"
          }
        ],
        "numberOfBytes": "192"
      },
      "t_uint256": {
        "encoding": "inplace",
        "label": "uint256",
        "numberOfBytes": "32"
      },
      "t_userDefinedValueType(euint32)40493": {
        "encoding": "inplace",
        "label": "euint32",
        "numberOfBytes": "32"
      },
      "t_userDefinedValueType(euint8)40487": {
        "encoding": "inplace",
        "label": "euint8",
        "numberOfBytes": "32"
      }
    }
  }
}